:020000040800F2
:10000000B0500020F90200084F1B0008F119000849
:100010004D1B00084F0600081522000800000000D4
:10002000000000000000000000000000390200088D
:10003000510600080000000095020008B51C0008E9
:100040001303000813030008130300081303000838
:100050001303000813030008130300081303000828
:100060001303000813030008130300081303000818
:100070001303000813030008130300081303000808
:100080001303000813030008130300080000000016
:100090000000000000000000000000001303000842
:1000A00013030008711D0008130300081303000860
:1000B00013030008130300081303000813030008C8
:1000C00013030008130300081303000813030008B8
:1000D00013030008130300080922000800000000B1
:1000E0005306000813030008130300080000000073
:1000F00000000000000000000000000013030008E2
:100100000000000013030008130300081303000895
:1001100000000000000000000000000000000000DF
:100120001303000813030008130300081303000857
:1001300013030008000000000000000000000000A1
:100140000000000000000000000000001303000891
:100150001303000813030008130300081303000827
:100160001303000813030008000000000000000053
:10017000000000000000000000000000000000007F
:100180000000000013030008000000000000000051
:10019000130300081303000800F002F800F03CF815
:1001A0000AA090E8000C82448344AAF10107DA45D2
:1001B00001D100F031F8AFF2090EBAE80F0013F0E8
:1001C000010F18BFFB1A43F0010318474C540000FD
:1001D0006C540000103A24BF78C878C1FAD852078E
:1001E00024BF30C830C144BF04680C6070470000B1
:1001F0000023002400250026103A28BF78C1FBD830
:10020000520728BF30C148BF0B6070471FB505F0CB
:1002100005F91FBD10B510BD00F0E4F91146FFF758
:10022000F5FF02F0A5FC00F002FA03B4FFF7F2FFBD
:1002300003BC00F005FA00002C4B19680868B0E810
:10024000F04F80F30988BFF36F8F4FF0000080F309
:10025000118870470000000008480068006880F3BB
:1002600008884FF0000080F3148862B661B6BFF3CF
:100270004F8FBFF36F8F00DF00BF00BF08ED00E0BE
:10028000DFF80C00016841F470010160704700BFA5
:1002900088ED00E0EFF30980BFF36F8F134B1A680E
:1002A0001EF0100F08BF20ED108A20E9F04F1060FB
:1002B00009B44FF0500080F31188BFF34F8FBFF3A4
:1002C0006F8F03F085FC4FF0000080F3118809BCAC
:1002D00019680868B0E8F04F1EF0100F08BFB0ECC6
:1002E000108A80F30988BFF36F8F704724000020C5
:1002F000EFF3058070470000094880470948004730
:10030000FEE7FEE7FEE7FEE7FEE7FEE7FEE7FEE7C5
:10031000FEE7FEE704480549054A064B7047000022
:10032000611D000899010008B04A0020B05000206B
:10033000B04C0020B04C002053EA020C00F0698061
:100340002DE9F04B4FF00006002B1FBFB3FA83F5E9
:1003500003FA05F424FA05F65E4012BF1643B2FA1A
:1003600082F502FA05F4C5F120051EBF22FA05FC4C
:1003700044EA0C04203556EA044C4FEA144418BFF2
:10038000641C4FF000084FF00009904271EB030C21
:1003900039D3002919BFB1FA81F701FA07F6B0FA8B
:1003A00080F700FA07F6C7F120071EBF20FA07FC06
:1003B00046EA0C062037B6FBF4FCA7EB0507103F16
:1003C00007F01F0BCBF120060CFA0BFB2CFA06F6FC
:1003D00044BFB3460026202FA4BF5E464FF0000B5B
:1003E0005BEA060C08BF4FF0010B19EB0B09ABFBE6
:1003F000027C48EB0608C01B06FB02CC0BFB03CCBF
:1004000071EB0C01C1E70B46024641464846BDE888
:10041000F08B13B54FF000004FF00001AFF30080F8
:10042000BDE81C407047032A40F2308010F0030CF6
:1004300000F0158011F8013BBCF1020F624498BF37
:1004400011F801CB00F8013B38BF11F8013BA2F1D4
:10045000040298BF00F801CB38BF00F8013B11F04F
:10046000030300F06280083AC0F0088051F8043BB2
:10047000083A51F804CBA0E80810F5E7121D5CBF5C
:1004800051F8043B40F8043BAFF30080D20724BF8F
:1004900011F8013B11F801CB48BF11F8012B24BF23
:1004A00000F8013B00F801CB48BF00F8012B704772
:1004B00002F0FF0343EA032242EA024200F069B875
:1004C0004FF0000200B5134694469646203922BFED
:1004D000A0E80C50A0E80C50B1F12001BFF4F7AF38
:1004E000090728BFA0E80C5048BF0CC05DF804EB1A
:1004F000890028BF40F8042B08BF704748BF20F888
:10050000022B11F0804F18BF00F8012B7047704785
:100510007047704710B500F05DF8006810BD10B569
:10052000044600F057F8046010BD10B5203AC0F042
:100530000B80B1E81850203AA0E81850B1E81850E4
:10054000A0E81850BFF4F5AF5FEA027C24BFB1E821
:100550001850A0E8185044BF18C918C0BDE8104092
:100560005FEA827C24BF51F8043B40F8043B08BF9B
:100570007047D20728BF31F8023B48BF11F8012B62
:1005800028BF20F8023B48BF00F8012B70474FF00E
:1005900000020429C0F0128010F0030C3FF492AF67
:1005A000CCF1040CBCF1020F18BF00F8012BA8BF5E
:1005B00020F8022BA1EB0C01FFF784BF5FEAC17C9E
:1005C00024BF00F8012B00F8012B48BF00F8012BD5
:1005D00070470000004870474C4A002000487047B0
:1005E0004C4A00207546FFF7F9FFAE460500694604
:1005F000534620F00700854618B020B5FFF78AFE65
:10060000BDE820404FF000064FF000074FF0000813
:100610004FF0000B21F00701AC46ACE8C009ACE894
:10062000C009ACE8C009ACE8C0098D46704710B5F8
:100630000446AFF300802046BDE81040FFF7F5BD4B
:1006400001491820ABBEFEE7260002007047FEE716
:1006500070474FF4005000F065B82DE9F0410446B2
:10066000876D00F061F9064694F8350000250228F0
:1006700006D08020606584F834500120BDE8F08108
:100680002068016821F0160101602068416921F0AD
:1006900080014161206C08B9A06C20B1206801681C
:1006A00021F0080101602068016821F0010101606A
:1006B0000CE000F039F9801B052807D9202060657F
:1006C000032084F8350084F83450D7E720680068A8
:1006D000C007EED194F85C103F208840B86001203C
:1006E00084F8350084F834500020C7E790F83510BE
:1006F000022903D08021416501207047052180F83F
:1007000035100068016821F0010101600020704788
:10071000B0F5005F03D10248006902F031BB7047B9
:1007200000000020044910B50A68024202D00860A7
:10073000FFF7EEFF10BD0000143C01402DE9F84F1B
:10074000DFF8B8A10022012403254FF00F090AF1B8
:10075000040BAAF1040E00BF0B6804FA02F6334042
:10076000B34273D10F7907F00307012F01D0022F95
:1007700016D187684FEA420805FA08FC27EA0C07F9
:10078000D1F80CC00CFA08FC4CEA070CC0F808C001
:100790004768B7430E79C6F3001696403E4346605D
:1007A0000E79F643B6070DD0C768560005FA06FC69
:1007B00027EA0C07D1F808C00CFA06FC4CEA070C33
:1007C000C0F80CC00E7906F00306022E10D1D60830
:1007D00000EB8608D8F8206057074FEAD76C09FA73
:1007E0000CF7BE430F6907FA0CF73743C8F82070BF
:1007F00006684FEA420C05FA0CF7BE430F7907F082
:10080000030707FA0CF7374307604E6816F4403FBA
:100810006DD03B4E376847F480473760366822F02A
:10082000030706F480460096364E07EB060CDCF80C
:10083000086897073F0F09FA07F826EA0806DFF865
:10084000C880404503D14FF000081EE04FE0DFF8BC
:10085000BC80404502D14FF0010816E0DFF8B080BF
:10086000404502D14FF002080FE0DFF8A880404574
:1008700002D14FF0030808E0DFF89C80404502D128
:100880004FF0040801E04FF0070808FA07F848EABB
:100890000608CCF80888DAF800605746D1F804C09A
:1008A0009E435FEACC2C00D51E433E60DBF800601F
:1008B0005F46D1F804C09E435FEA8C2C00D51E43EE
:1008C0003E60DEF800607746D1F804C09E435FEAE0
:1008D0008C3C00D51E433E60084F083F3E68D1F86F
:1008E00004C09E435FEACC3C00D51E433E60521CD0
:1008F000102AFFF431AFBDE8F88F0000083C01403A
:100900004438024000300140000002400004024030
:1009100000080240000C0240001002400AB1816150
:1009200070470904FBE70000014880687047000039
:1009300014000020024881680278114481607047E9
:10094000140000200B4810B5016841F400710160EB
:10095000016841F480610160016841F480710160C7
:10096000032000F099F80F2000F006F800F04AF894
:10097000002010BD003C024030B505461C4887B041
:100980000024016841F001010160006806A900F03F
:100990000100009001A800F02BF900F059F9154969
:1009A000154AB0FBF1F11548491E026040F2E732EA
:1009B000C0E90324C0E90114846100F07FFB040056
:1009C00012D10E4800F0BCFB04000DD1192000F03C
:1009D00035F8102D07D200222946192000F03CF8E6
:1009E0000748056000E0012407B0204630BD000044
:1009F0004438024040420F00000001403001002016
:100A0000180000200C4882B0016841F48041016068
:100A1000006800F4804000900748001F016841F022
:100A2000805101600068002200F0805000900F218A
:100A3000901E02B000F010B844380240002809DBD4
:100A400000F01F02012191404009800000F1E020E8
:100A5000C0F8001170470000F0B40E4B1B680C4644
:100A6000C3F30223C3F10705042D00D90425191D82
:100A7000072901D2002300E0DB1E012606FA05F15A
:100A8000491E214099409E40761E16403143F0BCDD
:100A900001F0D9BB0CED00E0064900F00702086840
:100AA0004FF6FF03184040EA0220034A1043086053
:100AB000704700000CED00E00000FA052DE9F0475A
:100AC0000E46050065D0DFF81481D8F80000F7B2B3
:100AD00000F00700B04207D288F80070D8F8000094
:100AE00000F00700B04254D128683D4C810712D570
:100AF000400703D5206840F4E050206028780007C4
:100B000003D5206840F4604020602068A96820F088
:100B1000F000084320602878C0072DD0304968686D
:100B20000839012812D0022813D0032811D00968EF
:100B3000890700292DDA216821F003010143216092
:100B4000FFF7F2FE814641F2883A0EE00968890318
:100B5000EFE709688901ECE7FFF7E6FEA0EB090182
:100B6000514502D90320BDE8F0872068696800F08C
:100B70000C00B0EB810FEFD1D8F80010404601F027
:100B80000701B14207D90770006800F00700B042C2
:100B900001D00120E7E72878400705D52068E968FB
:100BA00020F4E050084320602878000706D520682C
:100BB000296920F4604040EAC100206000F058F844
:100BC0002168084AC1F30311515CC8400649086016
:100BD00006480068FFF7D0FE0020C4E7003C024052
:100BE00008380240A454000820000020180000200B
:100BF0000F2202600C4A136803F00303436013687A
:100C000003F0F0038360136803F4E053C3601268D9
:100C10004FF4E05303EAD20202610448006800F096
:100C2000070008607047000008380240003C02409E
:100C30000448054900680968044AC1F38221515CEF
:100C4000C84070472000002008380240B454000813
:100C50000448054900680968044AC1F34231515CFF
:100C6000C84070472000002008380240B4540008F3
:100C7000154810B5006810F00C02144813D041104C
:100C8000042A0FD0082A0ED10F4C241F2268236893
:100C900002F03F025B0207D52068C0F38810A0FB7A
:100CA000010106E0084610BD2168C1F38811A1FBCF
:100CB00000010023FFF740FB2168C1F30141491CFB
:100CC0004900B0FBF1F010BD083802400024F400E8
:100CD0002DE9F84F04006ED02078DFF84C93C00760
:100CE000A9F104054AD009F104000168C1F38101AA
:100CF000012908D00068C0F3810002280AD1D9F880
:100D00000000400206D52868800337D560680028B7
:100D1000E1D033E06068B0F5803F10D0B0F5A02F8F
:100D2000286810D020F480302860286820F48020C3
:100D300028606068A8B1FFF7F7FD06460DE0286857
:100D400040F48030F4E740F480202860F7E700BFEB
:100D5000FFF7EAFD801B642873D828688003F7D565
:100D60000CE0FFF7E1FD064605E000BFFFF7DCFD04
:100D7000801B6428F0D828688003F7D42078DFF837
:100D8000AC8280074FF0000A3ED5A748001D0168DD
:100D900011F00C0F08D00068C0F3810002280BD1BD
:100DA000D9F80000400207D42868800716D5E0680B
:100DB000012800D112E033E1E068B8B10120C8F8A1
:100DC0000000FFF7B1FD064605E000BFFFF7ACFDF0
:100DD000801B0228C0D828688007F7D528682169B9
:100DE00020F0F80040EAC10028600DE0C8F800A03B
:100DF000FFF79AFD064604E0FFF796FD801B0228E8
:100E00001FD828688007F7D42078000722D5864F9E
:100E100087486169703771B101210160FFF784FD76
:100E2000064604E0FFF780FD801B022809D83868D9
:100E30008007F7D50EE0C0F800A0FFF775FD064665
:100E400005E082E0FFF770FD801B02287DD838683E
:100E50008007F7D42078400768D5DFF8CCB10027A9
:100E60000BF13C0BDBF80000C0000BD4DBF80010EA
:100E700041F08051CBF80010DBF80000012700F0B2
:100E8000805000906B4E3068C00510D4306840F43C
:100E900080703060FFF748FD009005E0FFF744FDEB
:100EA0000099401A022850D83068C005F6D55E4E29
:100EB000A0686C3601280FD00528306810D020F0CB
:100EC00001003060306820F004003060A068B8B1E4
:100ED000FFF72AFD00900FE0306840F00100F4E7D2
:100EE00040F004003060F7E7FFF71EFD0099411A5B
:100EF00041F28830814266D830688007F4D50EE030
:100F0000FFF712FD009007E0FFF70EFD0099411A70
:100F100041F28830814256D830688007F4D42FB12E
:100F2000DBF8001021F08051CBF80010A069C8B3A5
:100F30003D49091D0968C1F3810102294AD00228EF
:100F4000504607D0C8F8600000E03CE0FFF7ECFC3A
:100F500004463BE04746C8F86000FFF7E5FC06465C
:100F600005E000BFFFF7E0FC801B02282BD82868B3
:100F70008001F7D4D4E907010843A16A2E4A490841
:100F800002EB0141626A41EA8211084394F82C1095
:100F900040EA0161C9F8001001203866FFF7C4FC7F
:100FA000044606E03EE000BFFFF7BEFC001B02283F
:100FB00009D828688001F7D534E000BFFFF7B4FCFA
:100FC000001B022802D90320BDE8F88F28688001A1
:100FD000F4D427E00128F7D0D9F80000E26900F442
:100FE000800191421CD1226A00F03F01914217D149
:100FF00047F6C071626A0140B1EB821F10D1A26A4C
:101000004FF0FF3300F4403103EB5202B1EB024FDB
:1010100006D194F82C1000F07060B0EB016F01D095
:101020000120D1E70020CFE704380240000047420A
:10103000800E4742007000400000FFFF704770477D
:1010400070B590F83C20012A2CD0012480F83C4057
:10105000022280F83D2003685A689D6822F07006DD
:101060000A6832435A60104B02689A420ED0B2F1BD
:10107000804F0BD00D4B9A4208D00D4B9A4205D0B1
:101080000C4B9A4202D00C4B9A4204D1496825F08D
:1010900080031943916080F83D40002180F83C10A6
:1010A000084670BD022070BD0000014000040040F1
:1010B00000080040000C00400040014010B5040052
:1010C00003D094F83D0010B107E0012010BD0020CE
:1010D00084F83C00204600F01FF8022084F83D0010
:1010E000211D206800F04AFE012084F8460084F8A3
:1010F0003E0084F83F0084F8400084F8410084F802
:10110000420084F8430084F8440084F8450084F8E1
:101110003D00002010BD000008B500680649884267
:1011200008D10648016841F002010160006800F042
:101130000200009008BD000000040040403802405A
:1011400090F83D10012901D001207047022180F85C
:101150003D100168CA6842F00102CA6000680E4989
:1011600088420ED0B0F1804F0BD00C49884208D095
:101170000B49884205D00B49884202D00A4988426F
:1011800004D1816801F00701062903D0016841F00C
:101190000101016000207047000001400004004090
:1011A00000080040000C00400040014070B50446BB
:1011B00090F83C000025012817D0012684F83C60F7
:1011C000022084F83D002068826822F0770222F431
:1011D0007F4282600868502838D00DDC20284FD02C
:1011E00005DC90B3102811D14AE0022070BD3028F0
:1011F00046D040280AD13BE060282FD070280DD07F
:10120000B0F5805F03D0B0F5005F12D0012584F8FF
:101210003D60002084F83C00284670BDCB68D1E9D1
:101220000121206800F003FE2068816841F0770109
:1012300009E0CB68D1E90121206800F0F8FD2068C1
:10124000816841F480418160E1E719E0CA6849683A
:10125000206800F0A1FE5021206806E0CA684968B5
:10126000206800F0AAFE6021206800F0EAFDCEE7C9
:10127000CA684968206800F08FFE40212068F4E7C2
:10128000226801461046F0E7704770B504460068D2
:1012900001694FF00005C943890715D4C168C943E6
:1012A000890711D4E91E0161012020772068806937
:1012B0008007204602D0FFF7E7FF04E000F0C0F807
:1012C000204600F052F9257720680169C943490793
:1012D00017D4C168C943490713D46FF004010161F1
:1012E000022020772068806910F4407F204602D0D9
:1012F000FFF7CAFF04E000F0A3F8204600F035F93C
:10130000257720680169C943090716D4C168C94314
:10131000090712D46FF008010161042020772068CA
:10132000C0698007204602D0FFF7AEFF04E000F05E
:1013300087F8204600F019F9257720680169C9432C
:10134000C90617D4C168C943C90613D46FF0100188
:101350000161082020772068C06910F4407F204692
:1013600002D0FFF791FF04E000F06AF8204600F099
:10137000FCF8257720680169C943C90708D1C1680D
:10138000C943C90704D1891E0161204600F07EF9D6
:1013900020680169C943090609D4C168C94309061F
:1013A00005D46FF0800101612046FFF747FE2068F9
:1013B0000169C943490609D4C168C943490605D42E
:1013C0006FF040010161204600F06AF92068016970
:1013D000C94389060BD4C168C943890607D46FF095
:1013E000200101612046BDE87040FFF728BE70BDB6
:1013F00010B586B0044614216846FFF761F80D4920
:101400002068884214D10C480021026842F0010291
:101410000260006800F001000590C02000900220EA
:10142000CDE90101CDE9031069460448FFF786F9CB
:1014300006B010BD000400403038024000000240F9
:10144000704770B5044690F83C0000260D46012810
:101450000FD0012084F83C006AB1042A1DD0082A6C
:101460002FD00C2A3FD00126002084F83C003046C3
:1014700070BD022070BD206800F0ECFC206881691E
:1014800041F0080181612068816921F004018161D6
:10149000206881692A69114311E0206800F002FD8B
:1014A0002068816941F4006181612068816921F4CB
:1014B00080618161206881692A6941EA0221816134
:1014C000D2E7206800F01AFD2068C16941F00801E8
:1014D000C1612068C16921F00401C1612068C1694E
:1014E0002A69114311E0206800F034FD2068C169C9
:1014F00041F40061C1612068C16921F48061C1616A
:101500002068C1692A6941EA0221C161ACE710B5CE
:10151000040003D094F83D0010B107E0012010BD95
:10152000002084F83C00204600F01EF8022084F8D9
:101530003D00211D206800F021FC012084F84600B8
:1015400084F83E0084F83F0084F8400084F84100AD
:1015500084F8420084F8430084F8440084F845008D
:1015600084F83D00002010BD7047704710B5044658
:10157000022249B104290ED0082913D094F8410061
:10158000012816D0012010BD94F83E000128F9D1A1
:1015900084F83E200FE094F83F000128F2D184F84F
:1015A0003F2008E094F840000128EBD184F8402067
:1015B00001E084F841200122206800F02BFC124950
:1015C0002068884203D1426C42F4004242642068A1
:1015D00088420ED0B0F1804F0BD00C49884208D021
:1015E0000B49884205D00B49884202D00A498842FB
:1015F00004D1816801F00701062903D0016841F098
:1016000001010160002010BD000001400004004005
:1016100000080040000C00400040014030B5044686
:101620000D460068002200F0F5FB174B41F2111146
:1016300020688A10984209D1036A0B4206D1036AD6
:10164000134203D1436C23F4004343642068036ACC
:101650000B4206D1016A114203D1016821F0010158
:10166000016001203DB1042D08D0082D09D084F877
:101670004100002030BD84F83E00FAE784F83F00C6
:10168000F7E784F84000F4E70000014000680349F0
:10169000884201D1FFF74EB97047000000000140B9
:1016A0007047704770470000F8B501680446086845
:1016B000CA684B6910F00F0F4FF0000559D003F0C6
:1016C000010602F49077374365D0C10705D0D105F4
:1016D00003D5216C41F001012164410705D5D907EB
:1016E00003D0216C41F002012164810705D5D9079F
:1016F00003D0216C41F004012164010707D502F0F9
:101700002001314303D0216C41F008012164216C98
:1017100000293AD0800604D5900602D5204600F074
:101720008DFC20684069216CC0F38010090700D44B
:1017300060B3204600F05BFC20684069400621D57C
:101740002068143050E8001F21F0400140E80012EA
:10175000002AF5D1A06BA8B16C490165A06BFEF71A
:10176000C5FF002811D0A06B016D01B0BDE8F040AD
:10177000084783060FD593060DD52046BDE8F840EF
:1017800000F05CBC2046FFF78DFFF8BD2046FFF758
:1017900089FF2564F8BD266B2023012E79D1C6066A
:1017A00077D5D60675D50868486800904869400620
:1017B00040D5A16B086840680004000CEAD0A28DF7
:1017C0008242E7D9E085C869B0F5807F2DD02068D6
:1017D0000C3050E8001F21F4807140E80012002A0C
:1017E000F5D12068143050E8001F21F0010140E8D5
:1017F0000012002AF5D12068143050E8001F21F0B3
:10180000400140E80012002AF5D184F83E302563FB
:1018100020680C3050E8001F21F0100140E8001251
:10182000002AF5D1A06BFEF718FFA08DE18D401ABC
:1018300081B229E0A08DE18D401A81B2E08D0028AF
:10184000A8D00029A6D020680C3050E8002F22F440
:10185000907240E80026002EF5D12068143050E840
:10186000002F22F0010240E80026002EF5D184F876
:101870003E30256320680C3050E8002F22F0100223
:1018800040E80023002BF5D12046FFF70AFFF8BD02
:10189000FFE705062BD5150629D594F83D0021282C
:1018A000F5D1A068B0F5805F01D12069B0B1206AA0
:1018B000411C2162216800784860E08C401E0004D1
:1018C000000CE084E3D12068C16821F08001C16090
:1018D0002068C16841F04001C160D8E7206A0088F3
:1018E000C0F308004860206A801C2062E5E74006DB
:1018F000CDD55006CBD5CA68204622F04002CA603A
:1019000084F83D3000F073F8C1E70000DF1F0008E5
:1019100070B5040004D094F83D00002510B106E035
:10192000012070BD84F83C50204600F023F82420AC
:1019300084F83D002068C16821F40051C160204650
:1019400000F0DCFB2068016921F49041016120680E
:10195000416921F02A0141612068C16841F40051C8
:10196000C1602564202084F83D0084F83E000020FA
:1019700070BD000010B586B0044614216846FEF71D
:101980009FFD17492068884228D116480021026827
:1019900042F400320260006800F400300590114803
:1019A0001038026842F001020260006800F0010095
:1019B00005900C2000900220CDE901010320039046
:1019C0000720049069460848FEF7B8FE002205216A
:1019D0002620FFF741F82620FFF730F806B010BDAB
:1019E0000044004040380240000002407047704709
:1019F000FEE7000030B587B014216846FEF760FDB1
:101A000023480024016841F004010160016801F0ED
:101A100004010591016841F080010160016801F055
:101A200080010591016841F001010160016801F048
:101A300001010591016841F0020101600068154D46
:101A400000F002000590002220212846FEF766FFE4
:101A50004FF4005000904FF48810CDE9010469461E
:101A60000D48FEF76BFE202000900120CDE9010417
:101A7000694628460394FEF761FE002205212820CE
:101A8000FEF7EAFF2820FEF7D9FF07B030BD0000BF
:101A900030380240000002400008024030B58DB0EE
:101AA00000240794089409940A940B941C21684616
:101AB0000C94FEF705FD2448224901605321C0E93A
:101AC000011444F61F61C0E903148461FFF7F6FABC
:101AD00008B172B6FEE74FF48050079007A91A4884
:101AE000FFF764FB08B172B6FEE71748FFF70FFD7A
:101AF00008B172B6FEE70B940BA913480C94FFF7DC
:101B00009FFA08B172B6FEE76020009040F2DC5503
:101B1000CDE90154002269460B480494FFF791FC7B
:101B200008B172B6FEE70422694607480195FFF73F
:101B300088FC08B172B6FEE70348FFF759FC0DB008
:101B400030BD000000040040A4000020FEE7FEE7D6
:101B5000012001F05FF8FBE70C4C0D4F4FF0FF3612
:101B600001253146206901F091F80028F9D125704E
:101B700000210848FFF752FD04210648FFF74EFDFB
:101B8000002220213846FEF7C9FEEAE700000020C7
:101B900000000240A40000202DED0C8B00219FEDE1
:101BA000379B3848B0EE498AF0EE698AFFF7DEFCD1
:101BB00004213448FFF7DAFC334D287801285AD045
:101BC00051EC180B9FED310B53EC102B03F0FCF98B
:101BD00041EC1B0BB0EE4B0AF0EE6B0A00F044FB3D
:101BE0009FED2CCB51EC100B53EC1C2B03F0ECF9BC
:101BF0009FED2ADB53EC1D2B02F016FF41EC1A0B74
:101C0000B0EE4B0AF0EE6B0A00F02EFB53EC1C2BEF
:101C100051EC100B03F0D8F953EC1D2B03F008FB2B
:101C200041EC1B0B51EC1A0B03F03AF9044651EC52
:101C30001B0B03F035F9134A014610684463106822
:101C400081639FED180B51EC180B53EC102B02F035
:101C5000EBFE9FED160B41EC180B53EC102B03F031
:101C6000B1FA03D2B0EE498AF0EE698A5FF014004F
:101C700000F0D0FFA1E70A20FAE700000000000012
:101C800000000000A400002000000020399D52A2A6
:101C900046DF913F0000000000408F400000000040
:101CA00000709740000000000000004000000000AD
:101CB0000080764010B54FF0E020006902F0B6FCDD
:101CC000012803D0BDE8104002F02EB810BD00007E
:101CD00030B593B030216846FEF7F2FB14210CA812
:101CE000FEF7EEFB1C480025016841F080510160C1
:101CF000006800F0805011901848016841F440419C
:101D000001600068022400F440401190012000901E
:101D10004FF4A02001906005CDE9064008AA0420F8
:101D2000542182E813000B906846FEF7D1FF08B1FA
:101D300072B6FEE70CA90F2081E831004FF4805005
:101D4000CDE90F0502210CA8FEF7B8FE002801D04E
:101D500072B6FEE713B030BD40380240007000405C
:101D60000248016841F470010160704788ED00E0AD
:101D70000148FFF78ABA000030010020F0B5026880
:101D80001D4B1E4C9F031E4D1E4E984207D0B8425D
:101D900005D0A04203D0A84201D0B04204D122F025
:101DA000700C4A6842EA0C02984210D0B8420ED039
:101DB000A0420CD0A8420AD0B04208D0124CA04297
:101DC00005D0124CA04202D0114CA04203D122F403
:101DD0004074CA6822434C6922F0800222430260A8
:101DE0008A68C2620A688262984201D10969016305
:101DF00001214161F0BD00000000014000040040ED
:101E000000080040000C0040004001400044014038
:101E10000048014010B501F01F030121046A9940F8
:101E20008C430462016A9A401143016210BD10B5EF
:101E3000846842EA032224F47F440A4322438260F6
:101E400010BD826822F070020A4342F007018160EF
:101E50007047000030B5026A22F001020262026A95
:101E60004368846924F073050C682C4322F0020552
:101E70008A682A430A4DA8420BD122F00805CA6895
:101E800023F440732A434D6922F004021D438B69F9
:101E90002B434360846149684163026230BD0000A6
:101EA0000000014030B5026A22F010020262026AAC
:101EB000436884690D6824F4E64444EA05248D6887
:101EC00022F0200242EA05120B4DA8420ED1CD6845
:101ED00022F0800242EA05124D6923F4406343EA8E
:101EE00085038D6922F0400243EA850343608461E3
:101EF00049688163026230BD0000014030B5026A6A
:101F000022F480720262036A4268C46923F4007397
:101F100024F073050C682C438D6843EA05230C4DAF
:101F2000A8420ED1CD6823F4006343EA05234D692E
:101F300022F4405242EA05128D6923F4806342EA9A
:101F400005124260C4614968C163036230BD00008C
:101F50000000014030B5026A22F480520262046A35
:101F60004268C3690D6823F4E64343EA05238D689C
:101F700024F4005444EA0534064DA84204D14D69C6
:101F800022F4804242EA85124260C36149680164DA
:101F9000046230BD0000014010B5036A046A24F0F9
:101FA00001040462846924F0F00444EA021423F07A
:101FB0000A020A438461026210BD10B5036A23F06D
:101FC000100303628369046A23F4704343EA023214
:101FD00024F0A00343EA01118261016210BD10B533
:101FE000806B0021C185C184FFF75CFB10BD0168D7
:101FF0000C3151E8002F22F4907241E80023002BAD
:10200000F5D10168143151E8002F22F0010241E8B6
:102010000023002BF5D1016B012909D101680C3196
:1020200051E8002F22F0100241E80023002BF5D1E7
:10203000202180F83E1000210163704708B590F818
:102040003E10222901D0022008BD82684FF480533F
:102050009A4201D1016921B1816A9A421BD04AB1E9
:102060000AE00268816A5268C2F308020A80816A43
:10207000891C08E0026972B10268526802F07F02AE
:102080000A70816A491C8162C18D491E0904090CCC
:10209000C18503D019E002685268F1E70168CA6897
:1020A00022F02002CA600168CA6822F48072CA6005
:1020B00001684A6922F001024A61202180F83E103D
:1020C000016B012903D0FFF791FC002008BD00211E
:1020D000016301680C3151E8002F22F0100241E841
:1020E0000023002BF5D101680A68D20602D50A68E0
:1020F00049680091818DFFF7D4FAE6E770B5044690
:1021000000680169E26821F44051114301612169CD
:10211000A068E26908436169114308432168CA68FD
:1021200049F20C639A430243CA6020684169A2697C
:1021300021F440711143416131492068884202D045
:102140003049884202D1FEF783FD01E0FEF770FDC1
:10215000E2690023192164253226B2F5004F626836
:1021600028D0A0FB0101930F9200FEF7E5F801468D
:10217000B0FBF5F06FF01802504301EB800006EB66
:102180000010B0FBF5F000F0F002B1FBF5F002EB4F
:102190000012B1FBF5F06FF01803584301EB80001B
:1021A00006EB0010B0FBF5F000F00F0021681044C2
:1021B000886070BDA0FB010192185B41FEF7BCF87E
:1021C0000146B0FBF5F00201B1FBF5F06FF018032A
:1021D000584301EB800006EBC000B0FBF5F000F0C7
:1021E000F80002EB4002B1FBF5F0584301EB800030
:1021F00006EBC000B0FBF5F000F00700D6E70000EA
:1022000000100140001401400148FFF74DBA0000E2
:10221000EC000020FEE703B401984100009850EA6A
:10222000C12018BF04204A0D18BF40F0010040F241
:10223000FF72B2EB515F08BF40F00200012808BFF7
:10224000052002B070470907090E002804DB00F1E1
:10225000E02080F80014704700F00F0000F1E0204B
:1022600080F8141D7047000010B52F499FED2C1BFE
:102270002DED020B84B0059820F000408842DCBFB1
:1022800000209DED040B32DD2849884209D10498D5
:1022900040B94FF00100FEF742F900F03DFC06B0F6
:1022A00010BD05DB9DED040B00F02AFC06B010BD4F
:1022B00068469DED040B00F03BF810F0030011D0D0
:1022C000012818D09DED021B9DED000B02281AD0AD
:1022D00000F04AFA51EC100B02F09AFB06B041EC08
:1022E000100B10BD9DED021B9DED000B012000F0B9
:1022F0006FFB06B010BD9DED021B9DED000B00F0C5
:1023000033FA06B010BD012000F062FB51EC100B57
:1023100002F07EFB06B041EC100B10BD0000000087
:102320000000000000000000FB21E93F0000F07FFA
:102330002DE9F14F04462DED020B2DED088B8AB0EF
:102340009FEDE70B80ED020B139EE74826F000455A
:1023500085420ADC9DED120B002084ED000B0AB0D3
:10236000BDEC088B03B0BDE8F08FE0489FEDE0AB1B
:102370009FEDE1BBA84247DDE14F9FEDE39B9FED61
:10238000E48B9DED120B53EC1A2B51EC100B002E2D
:102390001CDD02F059FF41EC100BBD4208D053EC9C
:1023A0001B2B51EC100B02F04FFFC4E900010BE0B6
:1023B00053EC192B51EC100B02F046FF53EC182B89
:1023C00002F042FFC4E900010120C8E702F02CFB43
:1023D00041EC100BBD4208D053EC1B2B51EC100B01
:1023E00002F022FBC4E900010BE053EC192B51EC85
:1023F000100B02F019FB53EC182B02F015FBC4E98B
:1024000000014FF0FF30AAE7C348A84279DB9DEDF9
:10241000120B51EC100B00F09FFB41EC180B9FEDE1
:10242000C00B53EC102B02F0CFFD9FEDBF1B53EC04
:10243000112B02F0F9FA02F003FD074602F05DFDF0
:1024400041EC190B53EC1A2B02F0BEFD53EC182B88
:1024500002F0EEFE41EC180B53EC1B2B51EC190B68
:1024600002F0B2FDDFF8C8A241EC100B4FEA15589C
:102470000125FA4453EC102B51EC180B02F0E4FE4A
:10248000032DC4E900013DD0C1F30A5005EB45110D
:10249000A8EB00001139814234DA0AEB051BB0EEDB
:1024A00048AA9BED000BF0EE68AA53EC102B51EC00
:1024B000190B02F089FD41EC1B0B51EC1A0B53EC8C
:1024C0001B2B02F0C1FE41EC180B51EC1A0B53EC24
:1024D000182B02F0B9FE53EC1B2B02F0B5FE9BED5E
:1024E000020B41EC1A0B53EC102B51EC190B02F0C0
:1024F0006BFD53EC1A2B02F0A7FE41EC100B6D1C88
:10250000B8E70EE0002EA8BF3846BFF628AF94ED1E
:10251000000B51EC100B02F07BFAC4E90001784289
:102520001DE7C6F3130040F4801EC6F30A50A0F264
:10253000F530471100F01F05C5F12000DDF848B067
:1025400008900020069007900520EC467949002D60
:1025500007EB0002794408BF51F8221009D051F866
:10256000223001EB8201AB404A68089922FA01F15E
:102570001943A1FB0E26A1FB0B131A449A4234BF48
:102580000123002303EB06080CEB8003D3E901A62B
:102590000E448E4234BF0121002192448A4411B17D
:1025A000924502D903E0924501D2012100E00021C9
:1025B000C3E901A641444CF82010011EA0F101001E
:1025C000C4DC029800F10050850F0298DDE9036732
:1025D0008000DDF8148002F090FC41EC1A0B3046CC
:1025E00002F0A2FC9FED541B53EC112B02F0ECFC0B
:1025F00041EC1B0B384602F097FC9FED511B53EC4E
:10260000112B02F0E1FC41EC180B404602F08CFC6F
:102610009FED4D1B53EC112B02F0D6FC41EC190B36
:1026200051EC180B53EC192B02F0FEF953EC1B2B59
:1026300002F0FAF953EC1A2B02F0F6F9CDE9080191
:10264000002008909DED080B53EC1A2B51EC100B59
:1026500002F0FAFD53EC1B2B02F0F6FD53EC182BA5
:1026600002F0F2FD53EC192B02F0E2FD9FED381B56
:1026700053EC112B02F0A8FC9FED370B41EC180B2B
:1026800053EC102B9DED080B51EC100B02F09CFC51
:1026900053EC182B02F0C8F99FED310B41EC180BED
:1026A00053EC102B9DED080B51EC100B02F08CFC41
:1026B00053EC182B02F0B8F941EC100B139810F002
:1026C000004F06D06D4251EC100B02F0A1F941EC25
:1026D000100B284684ED000B41E6000000000000CE
:1026E0000000000000000000FB21E93F7CD902400F
:1026F00000004054FB21F93F3163621A61B4D03DC0
:10270000FB21F93F000000000000601A61B4D03DD9
:102710007370032E8A19A33BFB213941000000008E
:1027200083C8C96D305FE43F000000000000E03F57
:102730007A300000C82F0000000000000000103EAA
:10274000000000000000103C000000000000103AF3
:10275000182D4454FB21F93D3326A611460B113C9C
:1027600000000054FB21F93D10B52DED040B2DEDBB
:10277000088B82B0B0EE419AF0EE619A0B9820F08F
:1027800000449FED4BABB4F1795F11DA9DED0A0B7C
:1027900051EC100B02F054FB002801BFB0EE4A0AC6
:1027A000F0EE6A0A02B0BDEC088B04BF04B010BDA5
:1027B0009DED0A0B53EC102B51EC100B02F004FCB6
:1027C00041EC180B3C480621B0EE480AF0EE680ACE
:1027D000784400F081F853EC182B51EC100B02F008
:1027E000F3FB9DED0A0B41EC1B0B53EC192B51EC49
:1027F000100B02F0E9FB41EC190B53EC1B2B51ECD5
:10280000180B02F0E1FB53EC192B02F01DFD9FEDBC
:102810002C0B41EC190B53EC102B51EC180B02F064
:10282000D3FB41EC100B2848844210DA53EC192BEF
:1028300051EC100B02F008FD53EC1A2B02F0F8FCDF
:1028400041EC100B02B0BDEC088B04B010BD1F486A
:10285000A042BCBF9FED1E1B8DED001B06DBA4F547
:1028600000100190002000909DED001B51EC100B1A
:1028700053EC112B02F0E8FC9DED000B41EC180B22
:1028800053EC102B51EC1A0B02F0DEFC41EC1A0B4E
:1028900053EC192B51EC180B02F0D6FC53EC1A2B0D
:1028A00002F0C6FC41EC100BCCE700000000000079
:1028B000000000000000F03FEC2C000000000000D1
:1028C000000000000000E03F3333D33F0000E93F49
:1028D000000000000000D23F70B504462DED028BD1
:1028E0004D1E00EBC500B0EE408AF0EE608A90ED20
:1028F000000B35F0060017D053EC182B51EC100BE1
:1029000002F062FB41EC100B6D1E04EBC50090ED74
:10291000001B51EC100B53EC112B02F085F841EC2D
:10292000100B35F00600E7D1022D36D0042D1CD057
:10293000062D1CBFBDEC028B70BD53EC182B51EC67
:10294000100B02F041FB94ED0A1B53EC112B02F02B
:102950006BF853EC182B02F037FB94ED081B53EC8B
:10296000112B02F061F841EC100B53EC182B51ECD9
:10297000100B02F029FB94ED061B53EC112B02F017
:1029800053F853EC182B02F01FFB94ED040B53EC9F
:10299000102B02F049F841EC100B53EC182B51ECC2
:1029A000100B02F011FB94ED021B53EC112B02F003
:1029B0003BF853EC182B02F007FB94ED001B53EC93
:1029C000112B02F031F8BDEC028B41EC100B70BD05
:1029D00031B504462DED040B2DED0A8BB0EE41BA56
:1029E000F0EE61BA0B989DED0A0B20F00040B0F1BB
:1029F000795F0DDA51EC100BFFF70DFC042808BFCE
:102A000000F09AF89DED0A0BBDEC0A8B05B030BDC5
:102A100053EC102B51EC100B02F0D6FA41EC180BD2
:102A20009DED0A0B53EC182B51EC100B02F0CCFA75
:102A300041EC190B2C48B0EE480AF0EE680A05216B
:102A40007844FFF749FF9FED2ACBB0EE40AAF0EEA5
:102A500060AA9CB353EC1C2B51EC190B02F0B4FA96
:102A600041EC1C0B53EC1A2B51EC190B02F0ACFA95
:102A70009FED210B41EC190B53EC102B51EC1B0B70
:102A800002F0A2FA53EC192B02F0DEFB53EC182BE8
:102A900002F09AFA53EC1B2B02F0D6FB53EC1C2BE2
:102AA00002F0D2FB9DED0A1B53EC112B02F0C0FB90
:102AB000BDEC0A8B05B041EC100B30BDFFE753ECC9
:102AC0001A2B51EC180B02F07FFA53EC1C2B01F07F
:102AD000ABFF53EC192B02F077FA9DED0A1B53EC78
:102AE000112B01F0A1FFE3E7742B000000000000B0
:102AF000495555555555C5BF000000000000E03F41
:102B000010B553EC102B51EC100B01F08DFF41EC84
:102B1000100B10BD000000009FED050B10B553EC2D
:102B2000102B51EC100B02F033F841EC100B10BDE0
:102B300000000000000000009FED050B10B553ECF5
:102B4000102B51EC100B02F03FFA41EC100B10BDB2
:102B5000000000000000001082B0CDE9000121F06B
:102B6000004001909DED000B02B051EC100B70473E
:102B7000FDF7E8FEFFF7ACF8FEF73CFF1E481D49E5
:102B80000C2201604FF4E131416000218160C1609D
:102B9000C0E904128161C161FEF7BAFE08B172B6E4
:102BA000FEE7FEF77BFF012220211448FDF7B6FE69
:102BB00000F03EF8124A0021012000F095F8114C77
:102BC0000F4A002120616C3A0F4800F005F90C4AC9
:102BD0006060483A00210D4800F0FEF8084AA06005
:102BE000243A00210A4800F0F7F8E06000F032F8DB
:102BF000FEE7000000440040EC000020000002401E
:102C00009454000800000020511B0008991B000884
:102C1000591B000810B5EFF3058111B16FF00504E1
:102C200003E0002408B100F0D7FE204610BD0000EC
:102C3000EFF3058010B16FF005007047044801689C
:102C400011B14FF0FF307047012101600020704743
:102C50007400002010B5EFF3058010B16FF005008F
:102C600010BD08480168012902D04FF0FF3010BDA7
:102C7000054A002182F8141D0221016000F05CFF6A
:102C8000002010BD740000200BE000E0F8B50D46F8
:102C90000024211F4E1C002804D000BFEFF3058242
:102CA000A2B10DB10C461BE000216A46009101F073
:102CB00021FB012813D1009890B10A494FF08050B0
:102CC0000860BFF34F8FBFF36F8F09E0294601F013
:102CD0005FFB012804D015B16FF0010400E0344619
:102CE0002046F8BD04ED00E0F8B5144603460E4654
:102CF0004FF00005EFF3058098BB93B39E423DD89B
:102D00004CB1A0680028E06803D0502836D30120D9
:102D100002E008B132E00020012B05D010B31846C4
:102D2000A26801F034F820E040B1032000900022B6
:102D300011460120A36801F06BF804E00322002192
:102D4000012001F044F8050018D086B100231A468E
:102D5000194601F0D5F8012809D0284600F0EEFD0B
:102D600000250BE0184600F0F5FF050006D00CB179
:102D7000216800E00021284600F0CCFD2846F8BD7F
:102D800038B50024E51E00280BD000BFEFF3058105
:102D9000A9B100210091694601F0C1F9012815D1BE
:102DA00002E06FF0030412E0009880B109494FF08F
:102DB00080500860BFF34F8FBFF36F8F07E0002391
:102DC0001A46194601F09CF8012800D02C462046EE
:102DD00038BD000004ED00E02DE9FF414FEA01039A
:102DE0004FF00005EFF30581039549BB40B3802701
:102DF000182100244AB3166806B1344696691EB1FC
:102E00003146761E382E02D21679F60703D00020FE
:102E100004B0BDE8F081566906B1B708D2F808C021
:102E2000BCF1000F0DD0D5685C2D18D312693AB1F2
:102E300036B18DE806103A46214601F0CCFB0390EE
:102E40000DE0D6685EB912694AB903AACDE900124D
:102E5000BAB2214601F092FB012800D003950398F5
:102E6000D6E700002DE9F041134C0F460546E66811
:102E70002068001D00F050FC681C07D137B12168A4
:102E8000BDE8F0410D48091D00F096BC20683544AE
:102E9000B5424560216805D2A06BBDE8F041091D2F
:102EA00000F072BC606B091D00F06EFCA06A8542E8
:102EB00000D2A562BDE8F081240000206806002051
:102EC0002DE9F041054600F083FC2D4CA068401C24
:102ED000A06020682B4F10B1606930B32BE02560F3
:102EE000A068012827D1002606EB860007EB8000AA
:102EF00000F03CFC761C382EF6D3234800F036FC5C
:102F00002148143000F032FC1F48283000F02EFC1D
:102F10001D483C3000F02AFC1B48503000F026FCD5
:102F2000194860631430A06305E02068E96AC06A4C
:102F3000884200D82560606A401C60626864E86A64
:102F40002169884200D9206100EB800007EB8000F6
:102F5000291D00F031FC00F05BFC606900280CD0FA
:102F60002068E96AC06A884207D208494FF0805059
:102F70000860BFF34F8FBFF36F8FBDE8F081000093
:102F800024000020B80100201806002004ED00E015
:102F900038B500F01DFC104C2068C8B90F4800F08F
:102FA000E5FB0E48143000F0E1FB0C48E060143003
:102FB00020610A4B0020F03B009003F150021021E9
:102FC0000A2000F025FF206010B105A100F0A2FC4E
:102FD000BDE8384000F01CBC600000206C070020F9
:102FE000546D72510000000030B4026C0B46002A90
:102FF0000BD0C1681144C1608468A14201D301684B
:10300000C16030BC1846FDF70EBA30BC70472DE9E0
:10301000F041856B174604460026026C82B1C7B1A9
:10302000E068FDF700FAE168206C091AE1602268A7
:10303000914202D2A168081AE060022F16D017E070
:103040002068A8B9A06801F069FB06460020A060CE
:103050000EE06068FDF7E7F9216C60680844606085
:10306000A168884204D32068606001E005B16D1E4C
:103070006D1CA5633046BDE8F08110B5044690F89C
:10308000590058B101280CD002280FD0502080F3ED
:103090001188BFF34F8FBFF36F8FFEE7206B00F0F7
:1030A000CBFB2046BDE8104000F0C6BB10BD0000C1
:1030B00010484FF47051420706D0C01D0D4920F052
:1030C0000700411AC1F570510B4A00230144C2E9BF
:1030D00000030839183A21F0070111604B600B60BA
:1030E0000B1AC0E9001393604FF000405360506129
:1030F000704700004C0E002090000020144E154C2C
:10310000A6F29C474FF08058DFF84C9012E000BFC9
:1031100000F05EFBF068C568281D00F0FDFAA068AD
:10312000401EA0606068401E606000F071FB284691
:10313000FFF7A3FF60680028EAD138680128F9D9B1
:10314000C9F80080BFF34F8FBFF36F8FF2E7000025
:10315000540600202400002004ED00E070B51D4658
:10316000049C51B1C4F80020C4E90F01012120469C
:1031700000F082FE84F84C5070BD2460F4E700003B
:103180002DE9F05F8846DDE90B94154683469100F2
:103190009A460A9EA522206BFDF78AF96FF003017B
:1031A000206B01EB8501084420F00707780707D062
:1031B000502080F31188BFF34F8FBFF36F8FFEE76E
:1031C0000025B8F1000F0FD05FF00000221818F8AA
:1031D000001082F8341018F8001011B1401C1028AB
:1031E000F4D384F8435001E084F83450382E00D3EF
:1031F0003726E662C4E91365201D00F0C2FA04F127
:10320000180000F0BEFA2461C6F138006462A061C3
:10321000656584F8585052465946384600F066FABB
:103220002060B9F1000F01D0C9F80040BDE8F09F5F
:1032300030B5114900E011460A688242FBD34B6861
:103240005C18844203D140681844486008464368CB
:103250001C18944209D1084C183C2468A24209D099
:1032600052681A4442600A6812680260814200D0C3
:10327000086030BD0460F9E79000002070B50024BC
:1032800041600B4D0061914206D8D11A826991428A
:1032900006D2011D286907E09A4203D2994201D360
:1032A000012403E0011DE86800F06EFA204670BDBD
:1032B0006000002010B5044600F08AFAA06B28B127
:1032C0005FF0000400F0A4FA204610BD0124F9E7E5
:1032D00030B589B03C4D6EE00498002806DADDE98F
:1032E0000601059A90470498002864DB069C6069F3
:1032F00010B1201D00F010FA03A800F0D7F8024624
:1033000004980A2857D2DFE800F00505052D334A56
:1033100005052D3394F8280040F0010084F82800BA
:103320000599A069059B01442046FFF7A7FF68B3F4
:10333000216A2046884794F8280040073BD50020A2
:1033400000900598A169002342181946204601F013
:103350002BFBD8B9502080F31188BFF34F8FBFF3F8
:103360006F8FFEE714F8280F20F00100207022E094
:1033700094F8280040F0010084F828000598A06126
:1033800028B1811813462046FFF778FF13E050203C
:1033900080F31188BFF34F8FBFF36F8FFEE794F870
:1033A0002800810703D4204600F046FA03E020F00D
:1033B000010084F82800002204A9286800F0FEFE1D
:1033C000002889D109B030BD600000202DE9FC4102
:1033D0000F46054600F0F4FB01A800F067F804462C
:1033E000019818B101F04EFABDE8FC81254EAFB14D
:1033F00030690068D0B30027291B3A46306800F0D6
:10340000C9FA01F03FFA0028EED11F494FF0805071
:103410000860BFF34F8FBFF36F8FE5E7A542EBD88E
:1034200001F030FAF0682746C068C468201D00F03B
:1034300073F994F82800410719D5A0692B46411962
:103440003A462046FFF71AFFA8B10020034601467E
:1034500000902A46204601F0A7FA60B9502080F378
:103460001188BFF34F8FBFF36F8FFEE707E020F0A7
:10347000010084F82800216A20468847B4E7012724
:10348000BAE700006000002004ED00E00648416B50
:10349000096829B1416BC968C96849688162704788
:1034A0004FF0FF31FAE700002400002070B5054618
:1034B00001F0CAF8064E0446B068844203D200F018
:1034C00009F8012000E0002028602046B46070BDAB
:1034D00060000020F8B5194D20E0C068C468066897
:1034E000201D00F019F9216A2046884794F8280029
:1034F000400713D5A0693044B04206D9246160600A
:10350000211DE86800F040F908E00020034601466C
:1035100000903246204601F047FA38B1E868016869
:103520000029DAD12969C5E90310F8BD502080F3DC
:103530001188BFF34F8FBFF36F8FFEE7600000204D
:1035400008484068401C4FF0500080F3118804D0B8
:10355000BFF34F8FBFF36F8FFEE7BFF34F8FBFF304
:103560006F8FFEE798000020074CE068016841B1CA
:10357000C0680021D0F80000FFF728FFFFF7A8FE81
:10358000F3E701210020F7E7600000202DE9F0417A
:10359000044600F01DF994F9455004F1240609E0B1
:1035A000606A48B1304601F035F908B100F042FADE
:1035B0006D1E6DB2002DF3DC4FF0FF3684F84560D0
:1035C00000F026F900F004F994F9445004F11007D2
:1035D00009E0206948B1384601F01CF908B100F053
:1035E00029FA6D1E6DB2002DF3DC84F84460BDE84D
:1035F000F04100F00DB900002DE9F041054600272B
:1036000000F0DEFA324E306808B9FFF751FD7069FC
:1036100005424ED1C5B3083568070ED005F0070046
:10362000C0F108000544680707D0502080F31188D6
:10363000BFF34F8FBFF36F8FFEE72DB370688542E6
:1036400037D82348183001460C6801E020460C4664
:103650006168A94202D221680029F7D131688C4201
:1036600027D007682168016060680837411B10296E
:103670000FD96019420708D0502080F31188BFF39A
:103680004F8FBFF36F8FFEE713E041606560FFF778
:10369000CFFD61687068401A7060B268904200D2D5
:1036A000B060706901430020C4E90001F068401C6B
:1036B000F06001F0E7F8780707D0502080F3118818
:1036C000BFF34F8FBFF36F8FFEE73846BDE8F08141
:1036D000780000200449086818B10868026D521C7F
:1036E00002650868704700002400002010B5031F21
:1036F0004FF080741C601B1F21F001011960191F1D
:10370000044B0B6014390A60091F6FF00202443841
:103710000A6010BD41350008D0E9013201699A60A4
:10372000D0E901235A604A68824201D182684A6026
:10373000002202610868401E0860086870470000A7
:10374000034B036003F15C00086080201060704749
:1037500094070020044B036003F15C0008604FF401
:103760008070106070470000F009002000F108012F
:103770004FF0FF32C0E90112C16001610021016018
:10378000704700210161704730B50B685A1C02D0A8
:1037900000F1080202E0026904E02246546825684C
:1037A0009D42FAD953684B6099608A605160086104
:1037B0000168491C016030BD42684A6093688B60B3
:1037C00093685960916008610168491C0160704705
:1037D000502080F31188BFF34F8FBFF36F8F0A49DA
:1037E0004868401C486001280CD10848006810F067
:1037F000FF0F07D0502080F31188BFF34F8FBFF326
:103800006F8FFEE7704700009800002004ED00E095
:103810000849486828B1401E486001D180F31188EA
:103820007047502080F31188BFF34F8FBFF36F8F25
:10383000FEE700009800002070B500282AD0164D41
:10384000A0F1080460686969084207D1502080F33C
:103850001188BFF34F8FBFF36F8FFEE722683AB135
:10386000502080F31188BFF34F8FBFF36F8FFEE7B7
:103870008843606000F0A4F9606869680844686083
:103880002046FFF7D5FC2869401C2861BDE8704040
:1038900000F0F8BF70BD0000780000204FF0E0207D
:1038A00000210161816105494FF47A720968B1FB19
:1038B000F2F1491E4161072101617047200000209B
:1038C00010B5FCF715FD114910280ED300F1E020CA
:1038D00090F8F0030A78904207D2502080F31188C4
:1038E000BFF34F8FBFF36F8FFEE709480068896809
:1038F00000F4E060884207D9502080F31188BFF3BC
:103900004F8FBFF36F8FFEE710BD000098000020BF
:103910000CED00E010B5084B002200BF53F8324018
:103920001CB1521C082AF9D310BD43F8321003EB26
:10393000C201486010BD00007801002010B50400ED
:103940000AD000F013F894F8460000280CD1204665
:10395000BDE81040FFF770BF502080F31188BFF31F
:103960004F8FBFF36F8FFEE710BD0000084A0021A4
:1039700002EBC1035B68834206D1002042F83100AC
:1039800002EBC10148607047491C0829F0D3704719
:103990007801002070B515460E460446FFF718FF63
:1039A00094F944100020491C01D184F8440094F992
:1039B0004510491C01D184F84500FFF729FFA06B91
:1039C00028B92A46314604F1240000F051F8204677
:1039D000BDE87040FFF7DABD10B5020014D00F4803
:1039E000006B38B1502080F31188BFF34F8FBFF3C5
:1039F0006F8FFEE700F0E4F800211046FFF732FA7F
:103A000000F040FF002807D105494FF080500860C2
:103A1000BFF34F8FBFF36F8F10BD00002400002055
:103A200004ED00E002490A6A0260C968416070471B
:103A30002400002001490120C861704724000020B3
:103A400010B50C4650B1094909681831FFF79CFEC2
:103A50002046BDE810400121FFF704BA502080F352
:103A60001188BFF34F8FBFF36F8FFEE72400002054
:103A700070B514460D4668B10A4909681831FFF758
:103A80009BFE0CB14FF0FF3521462846BDE8704043
:103A9000FFF7E8B9502080F31188BFF34F8FBFF3D1
:103AA0006F8FFEE72400002070B504003ED0226D29
:103AB000A2B1E06C884200D30146E06A884235D06A
:103AC000012A33D11A4D2A6894420FD1502080F335
:103AD0001188BFF34F8FBFF36F8FFEE7502080F345
:103AE0001188BFF34F8FBFF36F8FFEE7E162A269CA
:103AF000002A02DBC1F13801A1610E4E00EB80000B
:103B0000616906EB8000814210D1201DFFF704FEA1
:103B1000E06A2969884200D9286100EB800006EB41
:103B20008000211DBDE87040FFF746BE70BD00005B
:103B300024000020B801002030B587B00024039491
:103B400005AA04A903A80494FFF7FAFDDDE903011F
:103B50000094CDE90110002315A11748059A00F043
:103B60003AFD164D0028E8621FD000F0EDFE012856
:103B700009D0401C19D1502080F31188BFF34F8F1A
:103B8000BFF36F8FFEE7502080F31188BFF34F8F94
:103B9000BFF36F8F4FF0FF30A86201206861EC60C7
:103BA00007B0BDE8304000F045B807B030BD0000B8
:103BB00049444C4500000000FD300008240000206E
:103BC0000248016B491C016370470000240000207B
:103BD000164810B5016B11B10121C16110BD002162
:103BE000C1610169124A01E0B9B1491E01EB8103CB
:103BF00052F82330002BF7D001EB810302EB830254
:103C000002F1080453685B685360A34201D15B680A
:103C10005360DA680260016110BD502080F31188A2
:103C2000BFF34F8FBFF36F8FFEE70000240000202B
:103C3000B80100201CB537480168374A914207D1C6
:103C4000502080F31188BFF34F8FBFF36F8FFEE7D3
:103C500000683149491E884207D1502080F31188FD
:103C6000BFF34F8FBFF36F8FFEE72C4908780190A9
:103C7000FF20087008788DF800009DF800009DF87E
:103C8000002000F0F000904207D0502080F311880F
:103C9000BFF34F8FBFF36F8FFEE79DF80000204CFE
:103CA00000F0500020700720A06005E09DF8002083
:103CB00052008DF80020401E9DF800201206F5D419
:103CC000A060032807D0502080F31188BFF34F8FE6
:103CD000BFF36F8FFEE74FF44070A060019808704B
:103CE0000C482030016841F470010160016841F026
:103CF00070410160FFF7D2FD00206060FCF7C0FA60
:103D00000848016841F040410160FCF7A5FA002035
:103D10001CBD000000ED00E071C20F4100E400E0B6
:103D20009800002034EF00E010B5502080F3118897
:103D3000BFF34F8FBFF36F8F00F08CFC18B10449B5
:103D40004FF080500860002080F3118810BD000003
:103D500004ED00E010B50C4648B184420FD9502064
:103D600080F31188BFF34F8FBFF36F8FFEE75020B2
:103D700080F31188BFF34F8FBFF36F8FFEE70222EE
:103D8000002100F024F8002800D0846310BD38B56D
:103D90000C4648B184420FD9502080F31188BFF3FC
:103DA0004F8FBFF36F8FFEE7502080F31188BFF372
:103DB0004F8FBFF36F8FFEE7022113460022009161
:103DC000114600F025F8002800D0846338BDF8B50E
:103DD00017460E46050013D005FB06F05030FFF7DE
:103DE0000BFC04000AD0002084F8460004F15002C5
:103DF0003B46314628460094FFF7B0F92046F8BD0F
:103E0000502080F31188BFF34F8FBFF36F8FFEE711
:103E100038B5049D18B153B1CAB181B120E050202A
:103E200080F31188BFF34F8FBFF36F8FFEE75020F1
:103E300080F31188BFF34F8FBFF36F8FFEE75020E1
:103E400080F31188BFF34F8FBFF36F8FFEE739B157
:103E5000502080F31188BFF34F8FBFF36F8FFEE7C1
:103E600050241C46012384F846302B460094FFF76B
:103E700075F9204638BD000070B50D46040025D008
:103E8000FFF7A6FCD4E90F20216802FB0011A16016
:103E90000021A163216861600A46D4E90F01401E38
:103EA00000FB0121E16021464FF0FF3001F8440F93
:103EB000487004F110008DB1FFF758FC04F12400A4
:103EC000FFF754FCFFF7A4FC012070BD502080F3E5
:103ED0001188BFF34F8FBFF36F8FFEE72169002971
:103EE000F0D000F097FC0028ECD004494FF080504F
:103EF0000860BFF34F8FBFF36F8FE3E704ED00E07F
:103F00002DE9FF4782B01D468A464FF000080400A5
:103F100003D0BAF1000F08D011E0502080F31188CF
:103F2000BFF34F8FBFF36F8FFEE7206C38B1502087
:103F300080F31188BFF34F8FBFF36F8FFEE7022D21
:103F40000AD1E06B012807D0502080F31188BFF31D
:103F50004F8FBFF36F8FFEE700F068FB3F4F4FF0CE
:103F600000094FF0805648B9049838B1502080F3CA
:103F70001188BFF34F8FBFF36F8FFEE7FFF728FC69
:103F8000A06BE16B884207D3022D05D00498D0B115
:103F9000B8F1000F1AD01EE02A4651462046FFF71E
:103FA00036F8616A19B104F1240000F033FC20B145
:103FB0003E60BFF34F8FBFF36F8FFFF729FC0120E7
:103FC00006B0BDE8F087FFF723FC22E06846FFF764
:103FD00029FD4FF00108FFF71BFCFFF7F1FDFFF78C
:103FE000F7FB94F94400401C01D184F8449094F903
:103FF0004500401C01D184F84590FFF709FC04A955
:10400000684600F081FA30B12046FFF7BFFA00F0B1
:1040100039FC0020D4E7FFF7DBFBA06BE16B8842A3
:1040200013D1FFF7F5FB04F110000499FFF708FD29
:104030002046FFF7ABFA00F025FC00289ED13E6039
:10404000BFF34F8FBFF36F8F98E7FFF7E1FB204679
:10405000FFF79CFA00F016FC90E7000004ED00E08A
:104060002DE9F0471F4690468946040003D0B9F178
:10407000000F08D011E0502080F31188BFF34F8F5C
:10408000BFF36F8FFEE7206C38B1502080F31188AA
:10409000BFF34F8FBFF36F8FFEE7022F0AD1E06BA4
:1040A000012807D0502080F31188BFF34F8FBFF352
:1040B0006F8FFEE7FFF704FC5020EFF3118680F3CB
:1040C0001188BFF34F8FBFF36F8FA06BE16B8842F6
:1040D00006D3022F04D0002086F31188BDE8F087B4
:1040E00094F94550A06B3A4649462046FEF78FFFAB
:1040F000681C04D06D1C84F845500120ECE7606A10
:104100000028FAD004F1240000F084FB0028F4D049
:10411000B8F1000FF1D00121C8F80010EDE770B53B
:104120000E46040009D0206C78B1502080F311882D
:10413000BFF34F8FBFF36F8FFEE7502080F31188DE
:10414000BFF34F8FBFF36F8FFEE7206848B9A068B9
:1041500038B1502080F31188BFF34F8FBFF36F8FBA
:10416000FEE7FFF7ADFB5020EFF3118580F31188D8
:10417000BFF34F8FBFF36F8FA16BE06B884218D9ED
:1041800094F94500491CA163411C04D0401C84F8EB
:10419000450001200EE0606A0028FAD004F12400F6
:1041A00000F038FB0028F4D0002EF2D0012030605F
:1041B000EFE7002085F3118870BD00002DE9F74777
:1041C000002683B08A46040003D0BAF1000F08D05D
:1041D00011E0502080F31188BFF34F8FBFF36F8F32
:1041E000FEE7206C38B1502080F31188BFF34F8F69
:1041F000BFF36F8FFEE700F019FADFF8F4804FF09D
:1042000000094FF0805748B9059838B1502080F325
:104210001188BFF34F8FBFF36F8FFEE7FFF7D8FA18
:10422000A56BC5B151462046FEF7DEFE6D1EA563A7
:10423000206950B104F1100000F0ECFA28B1C8F880
:104240000070BFF34F8FBFF36F8FFFF7E1FA0120CC
:1042500006B0BDE8F087059808B11EB106E0FFF78B
:10426000D7FA27E06846FFF7DDFB0126FFF7D0FA13
:10427000FFF7A6FCFFF7ACFA94F94400401C01D10B
:1042800084F8449094F94500401C01D184F845908D
:10429000FFF7BEFA05A9684600F036F90028204667
:1042A0000AD0FFF773F900F0EDFA2046FFF702F8A5
:1042B0000028B3D00020CBE7FEF7FCFF90B104F15B
:1042C00024000599FFF7BCFB2046FFF75FF900F0DB
:1042D000D9FA0028A2D1C8F80070BFF34F8FBFF3FE
:1042E0006F8F9BE72046FFF751F900F0CBFA95E777
:1042F00004ED00E02DE9F04790468946040003D024
:10430000B9F1000F08D011E0502080F31188BFF3FD
:104310004F8FBFF36F8FFEE7206C38B1502080F3D2
:104320001188BFF34F8FBFF36F8FFEE7FFF7C8FA17
:104330005020EFF3118680F31188BFF34F8FBFF346
:104340006F8FA76BF7B194F9445049462046FEF7AA
:104350004BFE7F1EA763681C04D06D1C84F844507C
:10436000012010E020690028FAD004F1100000F0CC
:1043700051FA0028F4D0B8F1000FF1D00121C8F8AB
:104380000010EDE7002086F31188BDE8F0870000FB
:104390002DE9F343002683B00400354609D0206C94
:1043A00078B1502080F31188BFF34F8FBFF36F8F28
:1043B000FEE7502080F31188BFF34F8FBFF36F8F5C
:1043C000FEE700F033F9DFF83C814FF000094FF0D1
:1043D000805748B9049838B1502080F31188BFF352
:1043E0004F8FBFF36F8FFEE7FFF7F2F9A06BC8B1F5
:1043F000401EA063206810B9FFF76CF9A060206927
:1044000050B104F1100000F005FA28B1C8F80070AE
:10441000BFF34F8FBFF36F8FFFF7FAF9012005B09D
:10442000BDE8F083049808B166B10FE03DB15020BB
:1044300080F31188BFF34F8FBFF36F8FFEE7FFF755
:10444000E7F95DE06846FFF7EDFA0126FFF7E0F9CE
:10445000FFF7B6FBFFF7BCF994F94400401C01D10B
:1044600084F8449094F94500401C01D184F84590AB
:10447000FFF7CEF904A9684600F046F80028204668
:1044800012D0FFF783F800F0FDF92046FEF712FF87
:104490000028A9D09DB3FFF79BF9606A50B3206B49
:1044A0000068C0F1380126E0FEF704FFE0B12068A3
:1044B00038B9FFF78DF9A06800F070F90546FFF7ED
:1044C000A7F904F124000499FFF7BAFA2046FFF790
:1044D0005DF800F0D7F9002886D1C8F80070BFF366
:1044E0004F8FBFF36F8F7FE72046FFF74FF800F045
:1044F000C9F979E70021A068FFF7D6FA9FE7FFE73F
:1045000000208CE704ED00E02DE9F0410C460500A9
:1045100011D0C4B1FFF75CF9174BDA686E682068F8
:10452000911B471C17D02F681B6A9F4219D09642D7
:1045300017D8012410E0502080F31188BFF34F8F6B
:10454000BFF36F8FFEE7502080F31188BFF34F8FCA
:10455000BFF36F8FFEE70024FFF75AF92046BDE84E
:10456000F081884205D9401A20602846FFF75AFAA0
:10457000F1E700202060DCE7240000202DE9FF5F48
:104580008346DDE90E87994616468A469000FFF776
:1045900033F805001CD05C20FFF72EF8040014D07F
:1045A0000020256384F85900CDE90240CDE9008759
:1045B0004B46324651465846FEF7E2FD2046FEF78E
:1045C0007FFC012004B0BDE8F09F2846FFF734F9D6
:1045D0004FF0FF30F6E7F0B585B0DDE90B640A9DDA
:1045E000A6B1DCB15C2700972663022684F85960E7
:1045F000002604AFCDE90246CDE90057FEF7C0FD25
:104600002046FEF75DFC049805B0F0BD502080F315
:104610001188BFF34F8FBFF36F8FFEE7502080F3F9
:104620001188BFF34F8FBFF36F8FFEE705484169D5
:1046300019B1006B18B100207047012070470220AB
:1046400070470000240000200148C0687047000047
:10465000240000202DE9F0412E4C0027206B28B1CA
:10466000A069401CA0613846BDE8F081E668761C70
:10467000E66013D1606B006838B1502080F3118878
:10468000BFF34F8FBFF36F8FFEE7606BA16B61636A
:10469000A063206A401C2062FEF7F8FEA06ADFF8E3
:1046A0007880864209D3606B0068A0B1606BC068F7
:1046B000C5686868864211D2A0622068C06A00EBB3
:1046C000800158F82100012800D90127E06900285D
:1046D000C9D00127C7E74FF0FF30EDE7281DFFF7EE
:1046E0001BF8A86A18B105F11800FFF715F8E86A79
:1046F0002169884200D9206100EB800108EB81002C
:10470000291DFFF759F8E86A2168C96A8842CAD3A7
:104710000127C8E724000020B801002070B504007C
:104720004FF0000133D01B4D2868844207D0502041
:1047300080F31188BFF34F8FBFF36F8FFEE7206DBB
:1047400038B1401E2065E36CE26A9A421FD040B146
:104750001DE0502080F31188BFF34F8FBFF36F8FA0
:10476000FEE7201DFEF7D8FFE06CE062C0F13800E4
:10477000A061E06A2969884200D92861064900EBF6
:10478000800001EB8000211DFFF716F8012108468B
:1047900070BD000024000020B801002070B50400A6
:1047A0004FF000002BD0194DE16A2A68D26A91427D
:1047B00026D2A069002804DB2868C06AC0F138004E
:1047C000A061134E01EB8101606906EB8101884213
:1047D00011D1201DFEF7A0FF2868C06AE062296998
:1047E000884200D9286100EB800006EB8000211D83
:1047F000FEF7E2FF02E02868C06AE062012070BDB7
:10480000E16C2A68D26A9142F8D370BD240000207E
:10481000B801002070B5C068C46854B104F1180034
:104820000646FEF779FF144D286B50B13146134808
:1048300015E0502080F31188BFF34F8FBFF36F8FC7
:10484000FEE7201DFEF768FFE06A2969884200D96B
:1048500028610B4900EB800001EB8000211DFEF771
:10486000ABFFE06A2968C96A884202D90120E86181
:1048700070BD002070BD0000240000204006002014
:10488000B80100202DE9F0472C4D00242746286B65
:1048900038B1FEF79DFF286B401E2863286B40B19E
:1048A00046E0502080F31188BFF34F8FBFF36F8F26
:1048B000FEE7A968224E0120D1B3A6F59169804692
:1048C0003068E0B1F068C46804F11800FEF724FF16
:1048D000201DFEF721FFE06A2969884200D928617E
:1048E00000EB800109EB8100211DFEF765FFE06A06
:1048F0002968C96A8842E3D3C5F81C80E0E70CB197
:10490000FEF7C4FDAC694CB14FEA0806FFF7A2FE02
:1049100000B1EE61641EF9D10020A861E86938B1E8
:104920000849012738070860BFF34F8FBFF36F8F27
:10493000FEF76EFF3846BDE8F08700002400002037
:104940004006002004ED00E010B586B0FEF720FB25
:10495000114C2068B8B100200390049005AA04A966
:1049600003A8FEF7F7FEDDE9032102208DE807002A
:1049700000230AA10B48059AFFF72DFE606010B1D5
:1049800006B0012010BD502080F31188BFF34F8F77
:10499000BFF36F8FFEE7000060000020546D7220AF
:1049A00053766300693500082DE9FF411E46134622
:1049B00002000A9D4FF0000016D0144C2768002F0B
:1049C0000FD0CDE900130292062917DAFFF72EFE69
:1049D00002284FF000030FD0002269462068FFF73D
:1049E0008FFA04B0BDE8F081502080F31188BFF346
:1049F0004F8FBFF36F8FFEE72A46EEE70023324664
:104A000069463846FFF72CFBEBE70000600000200A
:104A100081F00041704780F00040704721F0004174
:104A2000704720F00040704710B591EA030F48BF6F
:104A300083F0004300F11084841A71EB030C05D25B
:104A4000121943EB0C03001B61EB0C01DFF824E1AE
:104A50004FEA1154A4EB135C1EEA430F18BF9EEA01
:104A6000445F73D023EA0E03DCF1200E21EA0451E7
:104A700043F4801332D322FA0CFE10EB0E0023FA1B
:104A80000CFE41EB0E01CCF1200E03FA0EFE10EBF2
:104A90000E0051F10001B1F5801FCCF1200E32D291
:104AA00001EB045112FA0EF2BDE8104058BF7047F6
:104AB000401C38BF5FEA420218BF7047002814BF8D
:104AC00020F0010041F100014FEA410313F5001FFE
:104AD00038BF7047A1F1C04100F06EBB012A43EB23
:104AE0000302ACF1200CDCF11F0E32BF4FF0000EC0
:104AF00023FA0CF310EB030041EB0451B4EB115F0C
:104B0000D0D0A1EB045101F5801149085FEA3000D3
:104B100001EB04510ED350F1000038BF12FA0EFE23
:104B200008D1BDE81040C9E7401C38BF5FEA420227
:104B3000CAD1C3E7BDE810404FEA410313F5001F97
:104B400038BF7047A1F1C04100F036BB9EEA445F18
:104B500008D011EA5E0FBDE8104004BF01F000412B
:104B600000207047BDE8104070B500F0D7FA00BFD4
:104B700064FBBE3E0000E0FF491058BFC1F1404158
:104B80005B1058BFC3F140438B42EFF30080704786
:104B90002DE9C04130B4DFF8A0C23CEA111418BFBF
:104BA0003CEA131400F0EC8081EA03051CEA1114BE
:104BB00044EAD57418BF1CEA131500F0C780A4EBB3
:104BC00005044FF0004545EAC12145EAC32341EA07
:104BD000505143EA525304F17F74994204F5003472
:104BE0004FEAC0204FEAC22208BF904200F09C80EA
:104BF0004FEA13650FF24016765D4FEA134506FB48
:104C000005F7C7F1807706FB07F74FEAD737A7FB11
:104C100003687642C8F58038A7FB06CE38BFA8F1F6
:104C2000010807FB08E64FF0000EA6FB028CE6FB2E
:104C300003CEDCF1000CCEF1004E38BFAEF1010E18
:104C4000A6FB0C584FF000074FF00005E6FB0E875F
:104C5000A1FB08C6A0FB07CE16EB0E0645F100052A
:104C6000E1FB076515F1E04E7EBFA4F580345FEAF5
:104C700046066D4116F1800745F100054FEA1727FA
:104C80004FEA066647EA0567A6F1DE46B6F1805FA1
:104C90004FEA15251FD9384624F0010C05EBC471E5
:104CA000BCF1FE6F01EB0C1102D8F0BCBDE8008135
:104CB00024425CBF01F5801E9EEAC47F02D4F0BC92
:104CC000BDE80081244238D4F0BCA1F1C041BDE868
:104CD000004100F071BA4FEAD22242EA43524FEA51
:104CE000D323A7FB02864FEAD02040EA415007FBBE
:104CF00003661EEA0E0F4FEAD12105FB026658BF7C
:104D0000A6EB0056B6EB00564FEA520E4EEAC37EB3
:104D100018EB0E0E56EB530EBDD518EB02085E4194
:104D20007F1C55F10005B6E74FF480154FF00007E2
:104D30004FF000064FF00008ADE7F0BC4FF0000068
:104D400001F1C04101F00041BDE8008111EA0C1FF2
:104D50000CEA131500D00CE013EA0C1F00F02580BC
:104D60004FF00000F0BC81EA030101F00041BDE812
:104D70000081F0BCBDE8004181EA030100F01CBAEB
:104D8000F0BCBDE8004170B500F0C8F9097EFC3EFA
:104D900000F007B881EA03014FF0000001F0004184
:104DA000704781EA030100F007BAF0BCBDE800419A
:104DB0004FF0000021497047FFFDFBF9F7F5F4F2D1
:104DC000F0EEEDEBE9E8E6E4E3E1E0DEDDDBDAD8A6
:104DD000D7D5D4D3D1D0CFCDCCCBCAC8C7C6C5C404
:104DE000C2C1C0BFBEBDBCBBBAB9B8B7B6B5B4B31B
:104DF000B2B1B0AFAEADACABAAA9A8A8A7A6A5A406
:104E0000A3A3A2A1A09F9F9E9D9C9C9B9A999998C9
:104E10009797969595949393929191908F8F8E8E6C
:104E20008D8C8C8B8B8A89898888878786858584F9
:104E300084838382828181800000FF070000F87FE5
:104E40004FEA41034FEA5353A3F58063D3F11E03A6
:104E5000C8BFD3F1210C0CDD4FF0004242EAC12261
:104E600042EA505232FA03FC8CEAE17CACEBE1708E
:104E70007047102BC4BF0020704703F5787CBCF14D
:104E8000FF3F04D06FF0004282EA2100704770B506
:104E900000F044F94992248000207047F2E70000B6
:104EA0004FEA1153A3F58063D3F11E03A8BFD3F1DA
:104EB000200C08DB4FF0004242EAC12252EA505275
:104EC00032FA03F0704709420BD4102BC4BF002004
:104ED000704703F5787CBCF1FF3F05D04FF0FF3001
:104EE00070474FF00000704770B500F017F900BF31
:104EF0004992248000207047F0E710F0004248BF3C
:104F00004042B0FA80F310FA03F10AD0C3F11D0356
:104F100003F580634FEA415002EB035202EBD121CB
:104F200070474FF000007047B0FA80F310FA03F1B9
:104F30000AD0C3F11D0303F580634FEA41504FEAE5
:104F4000035202EBD12170474FF000007047000080
:104F500051EA030C17D41CF5801F58BFBCF5801F05
:104F600000F10680994218BF704708BF9042704711
:104F700007D711F5801F58BF13F5801F19D4994228
:104F80007047894270471CF5801F08D5BCF5801F0B
:104F9000F7D58B4218BF704708BF824270474FF465
:104FA000001C1CEB410F38BF1CEB430F01D28B429E
:104FB000704770B500F0B2F8922449004FF00051EC
:104FC0004FF08053FFF7D8BDDFF848C170B51CEA39
:104FD000111E1EBF1CEA13159EEA0C0F95EA0C0F5A
:104FE00000F06F8081EA030423EA4C134EEAD47E7A
:104FF00021EA4C1141F4801143F48013AE44A1FB2B
:10500000024CA0FB0365AEF17F7E361955EB0C0513
:10501000A1FB034C4CF10003A0FB021C16EB0C0699
:10502000654153F10003094218BF46F0010613F42D
:10503000007F0BD14FEA03314FEA0530340341EAD8
:10504000155140EA16506FF003020AE04FEAC321FF
:105050004FEAC520F40241EA555140EA56506FF03C
:10506000020202EB2E4201EB025585EACE710AD014
:105070005FEA440C18BF24F0004450F1000041F1F5
:10508000000120EAD47040F2FE7C624500D270BD7F
:10509000A84214BF4FF080444FF04044002E08BF98
:1050A0000024BEF1806FA8BFA1F1C041BDE87040EF
:1050B00080F282804FF0000001F1C04101F0004118
:1050C00070479EEA0C0F0CEA131518BF95EA0C0FF7
:1050D00006D04FF0000081EA030E0EF0004170BDD3
:1050E00000F01CF88900013E00F007B800F009B894
:1050F0004FEA430C5FEA5C5C08D081EA030100F0F0
:105100005BB84FEA410C5FEA5C5CF6D14FF00000FF
:10511000014970470000FF070000F87F0EF1020E02
:105120002EF0030E5EF8046B364205D4012A43EBE1
:10513000030515F5001F12D8012841EB010C1CF5E1
:10514000001F0CD80ED14FEAD17C15F5001F0CEBD7
:105150004C0C0CF1020C08BF4CEBD37C04E04FF07C
:10516000080C01E04FEAD37C0CEB4C0526FA05F65F
:1051700006F00706B6F1040C06D20EEB860CBDE86D
:1051800070404CF0010C6047DFE80CF0090B0202A4
:105190004FF000414FF00000A1F5002170BD19460D
:1051A0001046012851EB010418BFD4F5001484BF48
:1051B000002001F0004170BD0808A0F500114FEA81
:1051C0003101704753EA010C17D41CF5801F58BFFA
:1051D000BCF5801F00F106808B4218BF704708BFE6
:1051E0008242704707D713F5801F58BF11F5801F03
:1051F00019D48B4270479B4270471CF5801F08D51D
:10520000BCF5801FF7D5994218BF704708BF904280
:1052100070474FF4001C1CEB430F38BF1CEB410FD1
:1052200001D2994270470FB40CBC03BCFFF7C1BE5A
:1052300091EA030F10B581F000413FF5FDAB83F01B
:10524000004300F009B8000010B591EA030F48BF11
:1052500083F000433FF5F0AB841A71EB030C07D2E7
:1052600012198CF0004C43EB0C03001B61EB0C019A
:10527000DFF8A4E14FEA1154A4EB135C1EEA430FDC
:1052800018BF9EEA445F00F0B08023EA6E035242EA
:1052900021EA0451C3EB6E0338BF5B1EDCF1200E24
:1052A00025D322FA0CFE10EB0E0043FA0CFE41EB64
:1052B0000E01CCF1200E03FA0EFE10EB0E0051F1A0
:1052C0000001CCF1200E29D412FA0EF201EB0451A8
:1052D000BDE8104058BF7047401C1CBFB2F1004FE2
:1052E000704700280CBF491C20F00100704712EBEA
:1052F000020E43EB030218BF4FF0010E4EEA4202CA
:10530000ACF1200CDCF11E0E54D943FA0CFE10EB6C
:105310000E0051F1FF31CCF11E0ED5D50EF1010E6C
:1053200012FA0EFE404141EB010101EB445C5FEAE1
:105330005C5C10D910EBDE7001EB045138BFBEF19C
:10534000004FBDE8104018BF704700280CBF491C33
:1053500020F00100704730D24FEAD42C11F5001133
:1053600024F400641BD0B1FA81F20B3AA41AA41EF3
:10537000D2F12003914030FA03F31943904001EB3E
:10538000CC71002C01EB0451BDE81040A8BF704760
:1053900001F1C0414FF0000001F000417047B0FA48
:1053A00080F310FA03F100D110BDE41A173C480550
:1053B000C90AE4E701EB045110BD491001EB0451A7
:1053C000BDE810404FEA300002E04FF000017047A6
:1053D0004A0008BF0042F8D0B2F5001F28BF70474E
:1053E00001F000414FF0000070479EEA445F07D093
:1053F00011EA5E0FBDE8104004BF00210020704795
:10540000BDE8104070B5FFF789FE00BF40DFF63EF3
:1054100083F00041104670470000E0FF4FF04070FD
:10542000E1EE100A70470000EC5500080000000093
:10543000000000000000000000000000000200006A
:10544000180000000000000000000000E055000807
:10545000000000000000000000000000000000004C
:105460000002000018000000000000000000000022
:10547000F8550008000000000000000000000000D7
:1054800000000000000200002800000000000000F2
:1054900000000000085600080000000000000000A6
:1054A00000000000000000000000000001020304F2
:1054B00006070809000000000102030400000000C4
:1054C0004C5555555555A53F7751C1166CC156BF22
:1054D0009015CB19A001FA3EAD529C804F7E92BE32
:1054E000C4B1B4BD9EEE213ED43888BEE9FAA8BD51
:1054F00000004054FB21F93F3163621A61B4D03D92
:105500000000601A61B4D03D7370032E8A19A33B6A
:105510000000002E8A19A33BC14920259A837B39BC
:1055200000000000000000006E83F9A22915444E1F
:10553000D15727FCC0DD34F5999562DB4190433C9F
:10554000AB6351FE61C5BBDE3A6E24B7E0D24D427B
:10555000EA2E49061C92D1091CEB1DFE3EA729B17B
:10556000F53582E88444BB2E26709CE9417E5FB409
:1055700039D69139F43953838B5F849C3B28F9BD2C
:10558000FF97F81F0F9805DE8B112FEF1F6D0A5A3A
:10559000CF7E366DB709CB27663F464F2DEA5F9E1B
:1055A000C7BA27757BF1E5EBF739073DEA92528AD6
:1055B000B15FFB6B085D8D1FA6F810111111813FC3
:1055C000D561C119A0012ABF7DFEB157E31DC73EB9
:1055D000EB9C2B8AE6E55ABE7CD5CF5A3AD9E53DFD
:1055E000764D6F746F725461736B00006465666111
:1055F000756C745461736B0076456D657267656E8A
:1056000063795461736B00006D79456D65726765F0
:105610006E637953656D0000385600080000002065
:10562000A4000000D4010008DC560008A4000020FB
:105630000C500000F0010008000000000000000015
:105640000000000000000000000000000100000059
:1056500010000000000000000024F4000000000022
:10566000000000000000000000000000000000003A
:10567000000000000000000000000000000000002A
:10568000000000000000000000000000000000001A
:10569000000000000000000000000000000000000A
:1056A00000000000000000000000000000000000FA
:1056B00000000000000000000000000000000000EA
:1056C00000000000000000000000000000000000DA
:0C56D00000000000AAAAAAAA0000000026
:040000050800019955
:00000001FF
